:100000000C94A8000C943A030C94D0000C94D000EB
:100010000C94D0000C94D0000C94D0000C94D00020
:100020000C94D0000C94E2030C94D0000C940904BE
:100030000C94D0000C9471030C94D0000C94D0005C
:100040000C94A6020C94D0000C94D0000C94D00018
:100050000C94D00000407A10F35A00A0724E180998
:100060000010A5D4E80000E87648170000E40B541F
:10007000020000CA9A3B000000E1F50500008096EE
:100080009800000040420F000000A0860100000020
:10009000102700000000E8030000000064000000DA
:1000A00000000A00000000000100000000002C76A3
:1000B000D888DC674F0823DFC1DFAE59E1B1B796BE
:1000C000E5E3E453C63AE651997696E8E6C284261B
:1000D000EB898C9B62ED407C6FFCEFBC9C9F40F2F7
:1000E000BAA56FA5F490055A2AF75C936B6CF96773
:1000F0006DC11BFCE0E40D47FEF520E6B500D0ED38
:10010000902E0300943577050080841E080000209F
:100110004E0A000000C80C333333330F986E12833D
:100120001141EF8D2114893BE65516CFFEE6DB1811
:10013000D1844B381BF77C1D901DA4BBE4242032D6
:1001400084725E228100C9F124ECA1E53D275705A8
:1001500011241FBECFE5D8E0DEBFCDBF10E0A0E682
:10016000B0E0E4EFF8E102C005900D92A437B107CA
:10017000D9F721E0A4E7B0E001C01D92A431B20795
:10018000E1F710E0C8EAD0E004C02197FE010E9428
:100190002108C73AD107C9F70E9489040C94780C4A
:1001A0000C9400005D9BFECF8CB90895672B09F07D
:1001B0009FC0009711F4D89808958130910511F4EB
:1001C000D99808958230910511F4DA980895833012
:1001D000910511F4DB9808958430910511F4DC98B1
:1001E00008958530910511F4DD98089586309105C4
:1001F00011F4DE9808958730910511F4DF98089581
:100200008A30910511F4C09808958B30910511F44E
:10021000C19808958C30910511F4C29808958D30DD
:10022000910511F4C39808958E30910511F4C49886
:1002300008958F30910511F4C59808958031910586
:1002400011F4C69808958131910511F4C798089565
:100250008431910511F4A89808958531910511F420
:10026000A99808958631910511F4AA9808958731C7
:10027000910511F4AB9808958831910511F4AC986B
:1002800008958931910511F4AD9808958A31910549
:1002900011F4AE9808958B31910511F4AF9808953B
:1002A0008E31910511F4909808958F31910511F4D4
:1002B000919808958032910511F4929808958132B1
:1002C000910511F4939808958232910511F4949850
:1002D00008958332910511F495980895843291051B
:1002E00011F496980895859709F09FC097980895FE
:1002F000009711F4D89A08958130910511F4D99A94
:1003000008958230910511F4DA9A089583309105A9
:1003100011F4DB9A08958430910511F4DC9A089564
:100320008530910511F4DD9A08958630910511F418
:10033000DE9A08958730910511F4DF9A08958A3086
:10034000910511F4C09A08958B30910511F4C19A6A
:1003500008958C30910511F4C29A08958D3091055D
:1003600011F4C39A08958E30910511F4C49A08953A
:100370008F30910511F4C59A08958031910511F4DB
:10038000C69A08958131910511F4C79A0895843170
:10039000910511F4A89A08958531910511F4A99A4F
:1003A00008958631910511F4AA9A0895873191052F
:1003B00011F4AB9A08958831910511F4AC9A08951F
:1003C0008931910511F4AD9A08958A31910511F49E
:1003D000AE9A08958B31910511F4AF9A08958E313C
:1003E000910511F4909A08958F31910511F4919A25
:1003F00008958032910511F4929A08958132910501
:1004000011F4939A08958232910511F4949A089503
:100410008332910511F4959A08958432910511F46F
:10042000969A0895859709F4979A0895CF93C82FBF
:1004300080FF07C061E070E08EE090E00E94D6008F
:1004400006C060E070E08EE090E00E94D600C1FF40
:1004500007C061E070E08FE090E00E94D60006C027
:1004600060E070E08FE090E00E94D600C2FF07C01D
:1004700061E070E080E190E00E94D60006C060E09C
:1004800070E080E190E00E94D600C3FF07C061E009
:1004900070E081E190E00E94D60006C060E070E06C
:1004A00081E190E00E94D600CF910895CF93DF9331
:1004B000C82F60E070E08AE190E00E94D6008C2FA7
:1004C0000E94160261E070E08BE190E00E94D6008D
:1004D000CAEFD0E0CE010197F1F760E070E08BE168
:1004E00090E00E94D6002197F1F7DF91CF91089517
:1004F00080E00E94160288E893E10197F1F783E01B
:100500000E94560282EE94E00197F1F783E00E9488
:1005100056028EEB9AE00197F1F783E00E945602B3
:1005200082E00E94560282E00E94560288E00E9409
:10053000560280E00E9456028CE00E94560280E043
:100540000E94560286E00E94560208951F920F9262
:100550000FB60F921124CF92DF92EF92FF920F937A
:100560001F932F933F934F935F936F937F938F933B
:100570009F93AF93BF93EF93FF9324B135B18091D5
:100580006A0090916B004091E8005091E900841B53
:10059000950B829FB001839F700D929F700D112467
:1005A000072E000C880B990B0E947D0620E030E09E
:1005B00040E85AE30E9473076B017C0104E810E0F5
:1005C00022E044E00E942708C8010E949B0820E026
:1005D00030E040E250E4C701B6010E946E071816F1
:1005E00094F5AAEEB0E01296ED91FC91139720815C
:1005F00081E090E016960C9002C0880F991F0A9433
:10060000E2F7822B808380E395E729E130E0F9016E
:100610003197F1F70197D9F7AAEEB0E01296ED9174
:10062000FC911397308181E090E0AC0116960C901C
:1006300002C0440F551F0A94E2F7242F209523236C
:1006400020830197F1F7FF91EF91BF91AF919F91B7
:100650008F917F916F915F914F913F912F911F915A
:100660000F91FF90EF90DF90CF900F900FBE0F9003
:100670001F9018951F920F920FB60F9211248F930F
:1006800087E087B98F910F900FBE0F901F9018953C
:10069000EF92FF920F931F9322E02BB928E92AB91A
:1006A00026E820BD599B02C023E001C024E07B0165
:1006B0008C0104C0EE0CFF1C001F111F2A95D2F7FD
:1006C000A801970160E472E48FE090E00E94E007E7
:1006D0002150310929B930BD1F910F91FF90EF9042
:1006E00008951F920F920FB60F9211242F933F93EC
:1006F0004F935F936F937F938F939F93AF93BF932A
:10070000EF93FF9380918200909183009C012F5F73
:100710003F4F30938300209382002CB1FC01EC57B3
:10072000FF4F20835C9902C05B9B08C0E091820070
:10073000F0918300ED57FF4F8EE78083E0918200B8
:10074000F0918300ED57FF4F8081833251F5E091A6
:100750008200F0918300ED57FF4F10826CE670E04D
:1007600084E890E00E944708892B41F4E09106015B
:10077000F09107018081816080830FC06FE670E097
:1007800084E890E00E944708892B39F4E091060143
:10079000F091070180818E7F8083109283001092F8
:1007A0008200FF91EF91BF91AF919F918F917F91C7
:1007B0006F915F914F913F912F910F900FBE0F90CE
:1007C0001F9018951F920F920FB60F9211248F93BE
:1007D0009F93809180009091810001969093810079
:1007E000809380009F918F910F900FBE0F901F906C
:1007F00018958EB58D7F8EBD1DBC1CBC10928100DE
:100800001092800008950E94F9038EB582608EBD1B
:1008100008951F920F920FB60F9211242F933F93BA
:100820004F935F936F937F938F939F93AF93BF93F8
:10083000EF93FF938091740090917500A0917600E2
:10084000B09177000196A11DB11D80937400909323
:100850007500A0937600B093770080916600909128
:100860006700A0916800B0916900892B8A2B8B2BBF
:1008700079F160917400709175008091760090918B
:100880007700209166003091670040916800509198
:1008900069000E940208672B682B692BC9F410922B
:1008A0007400109275001092760010927700E4E0C8
:1008B000F1E0A281B3818C9181608C938CE792E905
:1008C0000197F1F70280F381E02D80818E7F808394
:1008D000FF91EF91BF91AF919F918F917F916F9118
:1008E0005F914F913F912F910F900FBE0F901F90EE
:1008F000189583B78B7F83BF83B78E7F83BF12BE6C
:100900001092740010927500109276001092770089
:10091000089581E08ABB8FEF87BB84BB80E281BBF7
:1009200089B7846089BF89B7816089BF60E875E253
:1009300080E090E00E9448038BEA86B980E48BBF98
:1009400080B7806480BFE091F400F091F500808171
:100950008460808385B7826085BF85B78E7F85BFC1
:10096000789460E070E082ED90E00E9450089093EF
:100970000D0180930C010E947802C8E7D0E0EE24BC
:10098000E394F12C0F2EF5E08F2EF02D689499242E
:1009900095F80F2EF9E1CF2ED12CF02DEA81FB81B5
:1009A0002081C7010E8002C0880F991F0A94E2F7C8
:1009B000922F982B9083982D9A95F1F7EA81FB81DD
:1009C00090818095892380838EB580648EBD08B622
:1009D00005FEFDCF0E9403048EB58F7B8EBD98BEB1
:1009E00008B605FEFDCFA6B4B7B400918000109103
:1009F00081000E94F903C801110FAA0BBB0BDC0197
:100A0000992788278A0D9B1DA11DB11D880F991F4D
:100A1000AA1FBB1F880F991FAA1FBB1FBC01CD01B6
:100A2000660F771F881F991F0E947D0623E333E31B
:100A300049E652E40E94D3052B013C0104E810E092
:100A400022E047E00E942708C8010E949B0820E09E
:100A500030E044EB52E4C301B2010E94CE0588238A
:100A6000DCF420E030E040E751E4C301B2010E9431
:100A7000D3050E94B7050E944506609366007093F7
:100A80006700809368009093690083B7846083BF98
:100A900083B7816083BF02C00E94790480E197E23E
:100AA000F6013197F1F7019709F478CFF9CFCF9399
:100AB000DF93E4E0F1E0CAE3D0E0D183C0836BE3ED
:100AC00070E07383628349E350E055834483EEEF23
:100AD000F0E087E390E09183808388E390E0938364
:100AE000828386E390E095838483E8EFF0E084E3FB
:100AF00090E09183808385E390E09383828383E316
:100B000090E095838483E2EFF0E081E390E09183CD
:100B1000808322E330E03383228380E390E0958377
:100B20008483AAEEB0E01196DC93CE9313967C9367
:100B30006E93129715965C934E93149717961C928A
:100B40001E921697D09AA081B181E8E7F0E0B183B8
:100B5000A083338322839583848385E090E0978309
:100B600086838C9180628C93DF91CF9108950E944F
:100B70004F0790F09F3748F4911116F40C946807D2
:100B800060E070E080E89FE3089526F01B16611D89
:100B9000711D811D0C94E2060C94FD060E94B8069E
:100BA00008F481E008950E94E7050C941C070E9458
:100BB000150758F00E940E0740F029F45F3F29F016
:100BC0000C94DC0651110C9468070C940B070E94DE
:100BD0002D0768F39923B1F3552391F3951B550B1A
:100BE000BB27AA2762177307840738F09F5F5F4F00
:100BF000220F331F441FAA1FA9F335D00E2E3AF03F
:100C0000E0E832D091505040E695001CCAF72BD056
:100C1000FE2F29D0660F771F881FBB1F26173707A7
:100C20004807AB07B0E809F0BB0B802DBF01FF27D9
:100C300093585F4F3AF09E3F510578F00C94DC06D4
:100C40000C9468075F3FE4F3983ED4F3869577955C
:100C50006795B795F7959F5FC9F7880F911D969592
:100C6000879597F90895E1E0660F771F881FBB1FEE
:100C7000621773078407BA0720F0621B730B840B9B
:100C8000BA0BEE1F88F7E09508950E944C06689411
:100C9000B1110C94680708950E94350788F09F579A
:100CA00098F0B92F9927B751B0F0E1F0660F771F90
:100CB000881F991F1AF0BA95C9F714C0B13091F086
:100CC0000E946707B1E008950C946707672F782F9B
:100CD0008827B85F39F0B93FCCF38695779567954B
:100CE000B395D9F73EF490958095709561957F4FB7
:100CF0008F4F9F4F0895E89409C097FB3EF490955D
:100D00008095709561957F4F8F4F9F4F9923A9F0E4
:100D1000F92F96E9BB279395F69587957795679573
:100D2000B795F111F8CFFAF4BB0F11F460FF1BC0B7
:100D30006F5F7F4F8F4F9F4F16C0882311F096E94A
:100D400011C0772321F09EE8872F762F05C06623F8
:100D500071F096E8862F70E060E02AF09A95660FB1
:100D6000771F881FDAF7880F9695879597F908956A
:100D7000990F0008550FAA0BE0E8FEEF16161706AC
:100D8000E807F907C0F012161306E407F50798F014
:100D9000621B730B840B950B39F40A2661F0232B2D
:100DA000242B252B21F408950A2609F4A140A695A9
:100DB0008FEF811D811D089597F99F6780E870E08E
:100DC00060E00895882371F4772321F09850872BF1
:100DD000762F07C0662311F499270DC09051862BFA
:100DE00070E060E02AF09A95660F771F881FDAF7A7
:100DF000880F9695879597F908959F3F31F0915008
:100E000020F4879577956795B795880F911D9695EE
:100E1000879597F908959FEF80EC089500240A9430
:100E20001616170618060906089500240A941216C5
:100E30001306140605060895092E0394000C11F4F8
:100E4000882352F0BB0F40F4BF2B11F460FF04C0A5
:100E50006F5F7F4F8F4F9F4F089557FD9058440FFE
:100E6000551F59F05F3F71F04795880F97FB991F09
:100E700061F09F3F79F087950895121613061406C6
:100E8000551FF2CF4695F1DF08C016161706180653
:100E9000991FF1CF869571056105089408950E9408
:100EA0003507A0F0BEE7B91788F4BB279F3860F478
:100EB0001616B11D672F782F8827985FF7CF869574
:100EC00077956795B11D93959639C8F30895E89481
:100ED000BB2766277727CB0197F908950E94B806AC
:100EE00008F48FEF08950E9486070C941C070E9457
:100EF0000E0738F00E94150720F0952311F00C948E
:100F0000DC060C940B0711240C9468070E942D0733
:100F100070F3959FC1F3950F50E0551F629FF0014C
:100F2000729FBB27F00DB11D639FAA27F00DB11D65
:100F3000AA1F649F6627B00DA11D661F829F2227EE
:100F4000B00DA11D621F739FB00DA11D621F839F75
:100F5000A00D611D221F749F3327A00D611D231F4B
:100F6000849F600D211D822F762F6A2F11249F5799
:100F700050409AF0F1F088234AF0EE0FFF1FBB1F9C
:100F8000661F771F881F91505040A9F79E3F51055B
:100F900080F00C94DC060C9468075F3FE4F3983E05
:100FA000D4F3869577956795B795F795E7959F5F05
:100FB000C1F7FE2B880F911D9695879597F9089597
:100FC000A1E21A2EAA1BBB1BFD010DC0AA1FBB1F4D
:100FD000EE1FFF1FA217B307E407F50720F0A21BBF
:100FE000B30BE40BF50B661F771F881F991F1A942C
:100FF00069F760957095809590959B01AC01BD0156
:10100000CF010895052E97FB1EF400940E94190845
:1010100057FD07D00E94E00707FC03D04EF40C9464
:10102000190850954095309521953F4F4F4F5F4F90
:10103000089590958095709561957F4F8F4F9F4F44
:101040000895EE0FFF1F0590F491E02D0994EF92A3
:101050000F931F93CF93DF93E80147FD02C034E065
:1010600001C034E1042E000C550B57FF03C051950D
:1010700041955109E32E022F242FAE010E94E7086B
:10108000CE01DF91CF911F910F91EF900895FB0159
:10109000DC018D91019080190110D9F3990B08950D
:1010A0000F931F93CF93DF93009731F46115710570
:1010B00019F480E090E03AC08B01EC016EE070E042
:1010C00081E090E00E94CB08FC01892B91F380E83D
:1010D00083830115110571F01387028781E88383EB
:1010E00080910A0190910B01892B21F4F0930B015F
:1010F000E0930A012097C9F0D187C087838182607D
:10110000838380910C0190910D01892B71F4F093F0
:101110000D01E0930C0180910E0190910F01892B3C
:1011200021F4F0930F01E0930E01CF01DF91CF91F5
:101130001F910F9108950F931F93CF93DF93E09129
:101140000C01F0910D01238121FF1BC08C01D0E027
:10115000C0E0F80181918F0160910C0170910D0147
:10116000DB011896ED91FC911997882331F00995D0
:10117000892B79F3DFEFCFEFECCF8AE00995892B4C
:1011800019F08FEF9FEF02C08D2F9C2FDF91CF9131
:101190001F910F9108950F931F93CF93DF93869F15
:1011A0008001879F100D969F100D1124C8010E9489
:1011B000410AEC01009729F0A80160E070E00E946C
:1011C0003A0CCE01DF91CF911F910F910895A9E0C4
:1011D000B0E0EDEEF8E00C94470C6A01122FB02E4F
:1011E0002BE3201720F0FF24F394F00E02C02CE331
:1011F000F22E0F2D27E0AE014F5F5F4F0E94620B72
:10120000BC014981842F8970813031F0E1FC06C036
:10121000E0FE06C090E205C09DE203C09BE201C073
:1012200090E05E2D507143FF3CC0911102C083E0FD
:1012300001C084E0811718F4212F281B01C020E091
:1012400051110BC0F601822F30E2882319F031933F
:101250008150FBCFC20ED11C20E0992329F0D6018A
:101260009C93F60131966F01C6010396E2FE0AC017
:101270003EE4D6013C9341E411964C9311971296AB
:101280003C9306C03EE6F601308341E6418332835B
:10129000FC01322F40E2332309F442C04193315024
:1012A000FACF42FF44C0911102C083E001C084E044
:1012B000811718F4212F281B01C020E051110BC009
:1012C000F601822F30E2882319F031938150FBCF51
:1012D000C20ED11C20E0992329F0D6019C93F6017F
:1012E00031966F01C6010396E2FE0BC039E4D601C8
:1012F0003C933EE411963C93119736E412963C934E
:1013000007C039E6F60130833EE6318336E63283A4
:10131000FC01322F40E2332319F041933150FBCFCF
:10132000FC01E20FF11D10828EEF9FEFA6C021E0BD
:1013300030E0911102C020E030E0161617061CF4D0
:10134000FB01319602C0E1E0F0E02E0F3F1FBB2011
:1013500021F0EB2DF0E0319602C0E0E0F0E02E0F3E
:101360003F1FE12FF0E02E173F071CF4121B212F27
:1013700001C020E08E2D887159F4F601822F30E2F1
:10138000882319F031938150FBCFC20ED11C20E08D
:10139000992329F0D6019C93F60131966F015111E2
:1013A0000BC0F601822F90E3882319F091938150AE
:1013B000FBCFC20ED11C20E00F2D060F9A81342FD7
:1013C000307144FF03C0913309F40150101624F426
:1013D000093018F008E001C001E0AB0177FF02C05E
:1013E00040E050E0FB01E41BF50BA1E0B0E0AC0FE6
:1013F000BD1FEA0FFB1F8EE2A82E4B01801A910839
:101400000B2D10E01195019511094F3FBFEF5B07C0
:1014100021F4D601AC9211966D01641775072CF07A
:101420008416950614F4818101C080E3415051096E
:101430003196D60111967D014017510724F0D6014F
:101440008C936701E2CF6417750739F4963320F463
:10145000953319F4311101C081E3F6018083F7015E
:10146000822F90E2882319F091938150FBCFF701EE
:10147000E20FF11D108280E090E02996ECE00C94E0
:10148000630C0F931F93CF93DF938230910510F479
:1014900082E090E0E0911201F091130120E030E051
:1014A000A0E0B0E0309719F14081518102811381B1
:1014B00048175907C8F08417950769F4109731F059
:1014C00012960C93129713961C9327C00093120147
:1014D0001093130122C02115310519F0421753074B
:1014E00018F49A01BD01EF01DF01F801DBCF2115EE
:1014F0003105F9F0281B390B2430310580F48A813D
:101500009B816115710521F0FB019383828304C0E7
:101510009093130180931201FE01329644C0FE01A4
:10152000E20FF31F8193919322503109398328836D
:101530003AC02091100130911101232B41F42091E8
:1015400062003091630030931101209310012091CB
:101550006000309161002115310541F42DB73EB78F
:101560004091640050916500241B350BE0911001FF
:10157000F0911101E217F307A0F42E1B3F0B28177F
:10158000390778F0AC014E5F5F4F2417350748F0FC
:101590004E0F5F1F5093110140931001819391935F
:1015A00002C0E0E0F0E0CF01DF91CF911F910F91F9
:1015B0000895CF93DF93009709F481C0FC0132971F
:1015C00013821282A0911201B0911301109781F43D
:1015D00020813181820F931F2091100130911101E0
:1015E0002817390751F5F0931101E093100167C0F6
:1015F000ED0120E030E0CE17DF0740F44A815B8147
:101600009E0141155105F1F0EA01F5CFD383C28364
:1016100040815181840F951FC817D90759F48881DB
:101620009981840F951F0296918380838A819B8183
:10163000938382832115310529F4F0931301E093FC
:1016400012013DC0E901FB83EA8349915991C40F1E
:10165000D51FEC17FD0761F480819181840F951FE0
:101660000296E90199838883828193819B838A838F
:10167000E0E0F0E012968D919C911397009719F09D
:10168000FD01DC01F7CF8D919C9111979D012E5F9B
:101690003F4F820F931F20911001309111012817A5
:1016A000390769F4309729F410921301109212014E
:1016B00002C013821282B0931101A0931001DF9136
:1016C000CF910895283008F027E03327DA01990FE9
:1016D000311D87FD916000966105710539F4326016
:1016E0002E5F3D9330E32A95E1F708959F3F30F058
:1016F00080387105610509F03C5F3C5F3D93913096
:1017000008F08068911DDF93CF931F930F93FF9292
:10171000EF92192F987F9695E92F96959695E90F58
:10172000FF27E255FF4F99273327EE24FF24A70117
:10173000E70105900894079428F4360FE71EF81E79
:10174000491F511D660F771F881F991F0694A1F727
:101750000590079428F4E70EF81E491F561FC11D77
:10176000770F881F991F661F0694A1F705900794AD
:1017700028F4F80E491F561FC71FD11D880F991F47
:10178000661F771F0694A1F70590079420F4490F70
:10179000561FC71FD81F990F661F771F881F0694F3
:1017A000A9F784911095177041F0D695C795579574
:1017B0004795F794E7941A95C1F7E4E5F0E068944B
:1017C0001590159135916591959105907FE27395EE
:1017D000E118F10A430B560BC90BD009C0F7E10C15
:1017E000F11E431F561FC91FD01D7EF4703311F424
:1017F0008A95E6CFE894015030F0080F0AF40027EC
:10180000021708F4202F2395022F7A3328F079E36A
:101810007D932A95E9F710C07D932A9589F6069461
:1018200097956795379517951794E118F10A430B2B
:10183000560BC90BD00998F023957E9173957A3396
:1018400008F070E37C932013B8F77E9170617D936C
:1018500030F0839571E37D9370E32A95E1F71124CD
:10186000EF90FF900F911F91CF91DF91992787FD06
:1018700090950895DC0101C06D9341505040E0F710
:1018800008952F923F924F925F926F927F928F9224
:101890009F92AF92BF92CF92DF92EF92FF920F93FF
:1018A0001F93CF93DF93CDB7DEB7CA1BDB0B0FB609
:1018B000F894DEBF0FBECDBF09942A8839884888C6
:1018C0005F846E847D848C849B84AA84B984C8845C
:1018D000DF80EE80FD800C811B81AA81B981CE0F53
:1018E000D11D0FB6F894DEBF0FBECDBFED01089538
:0418F000F894FFCF9A
:1018F4000000140120000100000005006F6E006F5D
:041904006666000013
:00000001FF
